:100000007AC09EC03FC467C49BC09AC099C098C0C4
:1000100097C096C095C0FCC693C092C091C090C0D6
:100020008FC000C20100010005000500030000E1CF
:10003000000001000F000F000D00009600000200FC
:1000400019001A001700127A000007002000210092
:100050001D00807000000B00230023002000004BD7
:1000600000001400370037003400403800001E0044
:100070004B004B00480080250000320072007200E7
:100080007000C01200006E00E900E900E60060099F
:100090000000E500D801D801D501B0040000D3016B
:1000A000B403B403B10358020000B4036707670741
:1000B00062072C0100006707DD0EDD0EDA0E00007E
:1000C0003A00370000003B003800000039003600DD
:1000D00001010101010101010202020102040810F3
:1000E000204080040201000000000004030201001F
:1000F0000000F901F30111241FBECFE5D2E0DEBFFD
:10010000CDBF10E0A0E6B0E0ECE7F6E102C005905C
:100110000D92A037B107D9F711E0A0E7B0E001C018
:100120001D92A437B107E1F710E0C4EFD0E003C09F
:100130002297FE0193DAC23FD107D1F7EBD792CADB
:100140005FCFEF92FF920F931F93CF93DF930F2E0A
:10015000F0E0EF2EF0E0FF2EF0E00F2FF0E01F2F89
:10016000F02DC0E0D0E081E02BD7AA2797FDA09525
:10017000BA2FBC01CD0103D923E030E040EA5BE3B4
:100180008AD92CEB34E743E55FE3F9D725E236E083
:1001900041E05DE359D89B01AC01C801B701F0D73C
:1001A0007B018C012196C431D105E9F620E030E0D5
:1001B00040EA51E449D8DF91CF911F910F91FF9010
:1001C000EF9008950F931F9382E0FAD6182F092F0E
:1001D00061E070E080E090E06FD6812F902F1F915A
:1001E0000F910895EF92FF920F931F93CF93DF9398
:1001F0000F2EF0E0EF2EF0E0FF2EF0E00F2FF0E0FA
:100200001F2FF02DC0E0D0E080E0DAD6AA2797FDBE
:10021000A095BA2FBC01CD01B2D823E030E040EA6E
:100220005BE339D921EE3AE744E15FE3A8D720E068
:1002300030E048EC52E42FD99B01AC01C801B70172
:100240009FD77B018C0165E070E080E090E034D6C0
:100250002196C431D105C1F6C801B70120E030E0D4
:1002600040EA51E4F1D7DF91CF911F910F91FF90B8
:10027000EF900895AF92BF92CF92DF92EF92FF92EC
:100280000F931F93AFDF7B018C015BDF5B016C0180
:10029000C801B70146D87093710060937000C8011F
:1002A000B7013AD8882777FD8095982F68D89B01A9
:1002B000AC01C801B70163D720E030E048EC52E45C
:1002C000EAD82AD87093730060937200C601B50112
:1002D00028D87093750060937400C601B5011CD8CE
:1002E000882777FD8095982F4AD89B01AC01C601DD
:1002F000B50145D720E030E048EC52E4CCD80CD82A
:1003000070937700609376005DDF9093790080931F
:10031000780081E090E090937B0080937A0080E702
:1003200090E018D11F910F91FF90EF90DF90CF9048
:10033000BF90AF9008950F931F9380E060E069D65F
:1003400081E060E066D682E060E063D688E061E04C
:1003500060D660EC72E180E090E041E028E007E0E8
:1003600010E09FD01F910F910895EEE7F0E02FEF7E
:100370003FEF682F70E06E0F7F1FA1E0B0EA12C060
:10038000808190E02827392741E0C9018170907071
:1003900036952795892B11F02A273B274F5F493047
:1003A000A1F73196E617F70759F7832F9927322FD0
:1003B0002227282B392BC90108958130910551F44A
:1003C0006F5F7F4F79F48AE091E06AE049E020E0D6
:1003D000F3D40895892B31F46F5F7F4F19F48AE0CD
:1003E00091E077D3089580E090E06FEF7FEFE5DF55
:1003F000089581E090E06FEF7FEFDFDF0895FF92D7
:100400000F931F93CF93DF93F82E809103018230D7
:1004100010F061E03DD60EE710E0CF2DD0E0C00F28
:10042000D11F06C08AE091E0F80161918F0193D35A
:100430000C171D07B9F78AE091E03FD480910801BD
:100440009091090194D580910301823010F060E011
:100450001FD6DF91CF911F910F91FF900895282F04
:10046000809104019091050101969093050180937C
:10047000040180910001882399F480910101809307
:100480007E0080910201806880937F00209380002D
:1004900083E06BDF909381008093820085E0AFDF83
:1004A0000895BF92CF92DF92EF92FF920F931F9326
:1004B0006B017C01B22E409301018AE091E0B7010B
:1004C000A60132D281E08B1548F4B09203018B2D46
:1004D00061E09FD58091030160E0DAD581E0C81624
:1004E0008BE4D80680E0E80680E0F8066CF086E948
:1004F00090E090930701809306018EE591E0909340
:1005000009018093080116C060EC71EE84EE90E062
:10051000A701960172D8309307012093060160EC81
:100520007EE086E192E0A701960167D83093090149
:10053000209308011093FF000093FE001092050124
:10054000109204011F910F91FF90EF90DF90CF90D8
:10055000BF900895CF92DF92FF920F931F93CF9396
:10056000DF936C01FF2400E018C0002321F08AE033
:1005700091E0B7D20DC080E8F81609F401E08AE0F6
:1005800091E0AFD2EF2DF0E0E258FF4F8083F3947B
:100590008091060190910701EAD48AE091E0C2D2ED
:1005A000892B19F7002369F020910401309105018E
:1005B0002F5F3F4F309305012093040121503040BD
:1005C000EEC086E08F1508F0D9C090917E001092A1
:1005D0000001992319F481E08093000180910101C9
:1005E000981729F080910001882309F4D4C0CF2DF9
:1005F000D0E0FE01E258FF4F3297919180E00081F8
:1006000010E0082B192B8F2D8250AFDE8017910739
:1006100009F0B8C040917F004093020190918000A2
:1006200080E020918100E22FF0E0E82BF92B9091FF
:10063000820080E02091830030E0282B392BB90123
:100640006E0F7F1F80910001882309F03FC0433067
:10065000E9F58091FE009091FF00E817F90708F096
:1006600088C08617970708F482C0220F331F022F15
:100670000B5F8091010180937E00209380002E2FDC
:1006800033E013C0EE0FFF1FEC0DFD1D9081818143
:10069000E32FF0E0E258FF4F80833F5FE32FF0E06D
:1006A000E258FF4F90833F5F2F5FE22FF0E0E617A5
:1006B000F70740F3802F825058DEE02FF0E0E25839
:1006C000FF4F329791938083802F4FC04630A9F41B
:1006D0008091FE009091FF00E817F90708F049C0EB
:1006E000EE0FFF1FEC0DFD1D3183208386E03DDE04
:1006F000909384008093850037C04031E9F5809164
:10070000840090E029978C179D07E1F58091FE0009
:100710009091FF00E817F90760F58617970738F101
:100720002E2F37E012C0E32FF0E0AA0FBB1FAC0D55
:10073000BD1DE258FF4F818190E0F081E0E08E2BFB
:100740009F2B8D939C933E5F2F5FA22FB0E0A61747
:10075000B70748F386E009DE909384008093850014
:10076000809100018823B9F488E049DE14C083E059
:1007700001C082E074DE0FC081E0FCCFFA9486E015
:100780008F1548F080910401909105010196909396
:100790000501809304012091040130910501C901F4
:1007A000DF91CF911F910F91FF90DF90CF9008952F
:1007B0000F931F93CF93DF93FC01738D7695717028
:1007C000A685B7859585772329F08C91892309F42F
:1007D00054C004C08C91892309F04FC08389948947
:1007E00020E001972FEF8F3F9207D9F7C589D6896F
:1007F000A685B785158560E031E040E050E000E077
:10080000CE01202F01972FEF8F3F9207D9F78C91C0
:10081000812311F0632B03C0832F80956823330F4E
:100820004F5F5F4F4830510559F78789908D20E021
:1008300001972FEF8F3F9207D9F771116095809143
:1008400068012091690190E001968F73907030E00B
:100850008217930779F0E0916801F0E0E85DFE4FC0
:1008600060838091680190E001968F73907080930F
:10087000680103C0838D8160838FDF91CF911F91C9
:100880000F9108951F920F920FB60F9211242F937C
:100890003F934F935F936F937F938F939F93AF9308
:1008A000BF93EF93FF9380912601909127010097CA
:1008B00009F07EDFFF91EF91BF91AF919F918F91F2
:1008C0007F916F915F914F913F912F910F900FBE4C
:1008D0000F901F9018951F920F920FB60F92112430
:1008E0002F933F934F935F936F937F938F939F9338
:1008F000AF93BF93EF93FF938091260190912701CF
:10090000009709F055DFFF91EF91BF91AF919F9153
:100910008F917F916F915F914F913F912F910F90A8
:100920000FBE0F901F901895CF92DF92EF92FF921B
:100930000F931F93CF93DF93EC016A017B011A8E13
:10094000198E188E1F8A1E8A1D8A1C8A1B8A20E017
:1009500030E0C9016CE070E009D68C01FC01EE5D6D
:10096000FF4F85919591A591B4918C159D05AE058C
:10097000BF0529F5C90163E070E0F8D5FC01EE0F71
:10098000FF1FEE0FFF1FEA5DFF4F859194919C8B37
:100990008B8BF801E85DFF4F859194919E8B8D8B39
:1009A000F801E65DFF4F85919491988F8F8BF80148
:1009B000E45DFF4F859194919A8F898F06C02F5FD8
:1009C0003F4F2D30310509F0C4CF8F89988D892B89
:1009D00009F436C04C854B3058F59BB7483010F4BD
:1009E00080E101C080E2892B8BBF483028F0E0E431
:1009F000F0E0A0E4B0E004C0E2E3F0E0A2E3B0E0A5
:100A00005081483040F481E090E002C0880F991F87
:100A10004A95E2F70BC02AE030E0241B310981E05F
:100A200090E002C0880F991F2A95E2F7852B8C93DE
:100A3000898D9A8D20E001972FEF8F3F9207D9F78C
:100A400080912601909127018C179D0781F08B8D55
:100A50008E7F8B8F9FB7F894109268018091680108
:100A600080936901D0932701C09326019FBFDF9136
:100A7000CF911F910F91FF90EF90DF90CF9008954D
:100A8000FC0144854B3020F5483028F0E0E4F0E0EC
:100A9000A0E4B0E004C0E2E3F0E0A2E3B0E0508103
:100AA000483040F481E090E002C0880F991F4A95D9
:100AB000E2F70BC02AE030E0241B310981E090E02E
:100AC00002C0880F991F2A95E2F7809585238C93A1
:100AD0000895FC0184E690E091838083CF01D0DF0C
:100AE000089520912601309127012817390731F404
:100AF0009091690180916801981719F42FEF3FEFE9
:100B00000FC0E0916901F0E0E85DFE4F2081809127
:100B1000690190E001968F7390708093690130E0D5
:100B2000C90108952091260130912701281739071E
:100B300019F020E030E00DC080916801209169013A
:100B400090E0805C9F4F821B910960E470E020D5AB
:100B50009C01C90108950F931F93DC0159968D9153
:100B60009C915A97892B49F481E090E013969C93CD
:100B70008E93129720E030E097C00FB7F8945B9601
:100B80008C915B975196ED91FC91529750962C91D8
:100B9000509781FF8DC08081822B808359968D91E3
:100BA0009C915A97049620E001972FEF8F3F920770
:100BB000D9F75B968C915B9781FF35C031E040E0BF
:100BC00050E070E010E0832F90E086239723519649
:100BD000ED91FC91529750962C915097892B29F0CA
:100BE000808120952823208303C08081822B8083ED
:100BF00059968D919C915A97212F01972FEF8F3FF6
:100C00009207D9F7330F4F5F5F4F48305105D9F640
:100C10005196ED91FC915297908150968C915097FE
:100C20008095892333C031E040E050E070E010E06F
:100C3000832F90E0862397235196ED91FC91529754
:100C400050962C915097892B21F08081822B8083A4
:100C500004C0808120952823208359968D919C91F2
:100C60005A97212F01972FEF8F3F9207D9F7330F14
:100C70004F5F5F4F48305105D9F65196ED91FC9189
:100C80005297808150969C915097892B80830FBFFB
:100C900059968D919C915A9720E001972FEF8F3FA5
:100CA0009207D9F721E030E0C9011F910F91089513
:100CB000808120952823208371CF209126013091B7
:100CC00027012817390749F49FB7F8941092680153
:100CD00080916801809369019FBF0895209126014A
:100CE000309127012817390731F4909169018091DB
:100CF0006801981719F42FEF3FEF0AC0E0916901DE
:100D0000F0E0E85DFE4F8081282F332727FD3095E6
:100D1000C90108951F93CF93DF93EC01162F862FFF
:100D200060E077D18B8D81FD03C0812F61E0B0D170
:100D30001C87212F30E0C90185529F4FFC0184910F
:100D40008D8720533F4FF9016491E62FF0E0EE0FBD
:100D5000FF1FE653FF4F859194919F878E87DF9108
:100D6000CF911F910895FF920F931F938C01F62E40
:100D7000862F61E04ED18F2D61E08AD18F2D90E0DA
:100D8000FC01E552FF4FE491D8015096EC93509747
:100D900080539F4FFC016491E62FF0E0EE0FFF1FA0
:100DA000EC53FF4F8591949152969C938E9351975B
:100DB0001F910F91FF900895FF920F931F938C0145
:100DC000F62EFC011382128288EE93E0A0E0B0E0E0
:100DD00084839583A683B78384E690E091838083A0
:100DE000148A138A168A158A108E178A128E118E0B
:100DF000838D2170220F8C7F822B838FC801642FFB
:100E0000B2DFC8016F2D86DF1F910F91FF9008950B
:100E10001F920F920FB60F9211242F933F934F936F
:100E20005F936F937F938F939F93AF93BF93209123
:100E30006E0130916F01409170015091710170917C
:100E40007201DA01C9010296A11DB11D672F6A5F07
:100E50006D3730F06D57DA01C9010396A11DB11D40
:100E60006093720180936E0190936F01A093700163
:100E7000B093710180916A0190916B01A0916C0116
:100E8000B0916D010196A11DB11D80936A019093EF
:100E90006B01A0936C01B0936D01BF91AF919F91D5
:100EA0008F917F916F915F914F913F912F910F9013
:100EB0000FBE0F901F9018959B01AC017FB7F8945F
:100EC00080916A0190916B01A0916C01B0916D01CC
:100ED00062B708B600FE05C06F3F19F00196A11D6C
:100EE000B11D7FBFBA2FA92F982F8827860F911D7C
:100EF000A11DB11D63E0880F991FAA1FBB1F6A9532
:100F0000D1F7BC012EC0FFB7F89480916A0190918F
:100F10006B01A0916C01B0916D01E2B708B600FEC3
:100F200005C0EF3F19F00196A11DB11DFFBFBA2FFB
:100F3000A92F982F88278E0F911DA11DB11DE3E0C9
:100F4000880F991FAA1FBB1FEA95D1F7861B970B25
:100F5000885E9340C0F2215030404040504068517C
:100F60007C4F211531054105510569F6089501971A
:100F700039F0019729F0880F991F01970197F1F730
:100F80000895789480B7826080BF80B7816080BF09
:100F900083B7826083BF83B7816083BF89B7816075
:100FA00089BF1EBC8EB582608EBD8EB581608EBD40
:100FB0008FB581608FBD329A319A309A379A0895F1
:100FC000982F8E3008F09E5083B1292F26952695B4
:100FD000269530E02170307045E0220F331F4A958E
:100FE000E1F78F7D822B83B9977080917301829591
:100FF000880F880F807C892B87B9369A3699FECF67
:1010000024B145B1942F80E030E0282B392BC90161
:101010000895CF93DF93482F50E0CA0185529F4F28
:10102000FC01349140535F4FFA018491882369F1A8
:1010300090E0880F991FFC01E254FF4FA591B491F5
:10104000FC01EC53FF4FC591D491662351F42FB7A7
:10105000F8948C91932F909589238C938881892380
:101060000BC0623061F42FB7F8948C91932F909558
:1010700089238C938881832B88832FBF06C09FB7D9
:10108000F8948C91832B8C939FBFDF91CF9108951F
:10109000482F50E0CA018A519F4FFC012491CA0198
:1010A00085529F4FFC01949140535F4FFA01349158
:1010B000332379F12223C9F02230A1F0233018F430
:1010C000213099F40CC0233019F0243071F403C09E
:1010D0008FB58F7702C08FB58F7D8FBD06C080B76B
:1010E0008F7702C080B78F7D80BFE32FF0E0EE0FD7
:1010F000FF1FEC53FF4FA591B4912FB7F8946623CF
:1011000021F48C919095892302C08C91892B8C932A
:101110002FBF0895CF93DF9334DF0DD9C0E0D0E027
:10112000A9D82097E9F36CD7FBCFCF92DF92EF924B
:10113000FF920F931F93CF93DF937C016B018A0182
:10114000C0E0D0E00FC0D6016D916D01D701ED91E7
:10115000FC910190F081E02DC7010995C80FD91FBE
:10116000015010400115110571F7CE01DF91CF91AB
:101170001F910F91FF90EF90DF90CF9008955058FE
:10118000BB27AA270ED04DC13ED130F043D120F06D
:1011900031F49F3F11F41EF433C10EF4E095E7FBE8
:1011A00029C1E92F4FD180F3BA176207730784076B
:1011B000950718F071F49EF567C10EF4E0950B2EBB
:1011C000BA2FA02D0B01B90190010C01CA01A00199
:1011D0001124FF27591B99F0593F50F4503E68F1F4
:1011E0001A16F040A22F232F342F4427585FF3CF35
:1011F000469537952795A795F0405395C9F77EF406
:101200001F16BA0B620B730B840BBAF09150A1F04E
:10121000FF0FBB1F661F771F881FC2F70EC0BA0FD4
:10122000621F731F841F48F4879577956795B7955C
:10123000F7959E3F08F0B3CF9395880F08F0992754
:10124000EE0F9795879508950CD0EBC0E3D040F052
:10125000DAD030F021F45F3F19F0CCC0511115C144
:10126000CFC0F0D098F39923C9F35523B1F3951B60
:10127000550BBB27AA2762177307840738F09F5FB7
:101280005F4F220F331F441FAA1FA9F333D00E2E26
:101290003AF0E0E830D091505040E695001CCAF793
:1012A00029D0FE2F27D0660F771F881FBB1F261758
:1012B00037074807AB07B0E809F0BB0B802DBF012B
:1012C000FF2793585F4F2AF09E3F510568F092C068
:1012D000DCC05F3FECF3983EDCF38695779567952D
:1012E000B795F7959F5FC9F7880F911D96958795DC
:1012F00097F90895E1E0660F771F881FBB1F6217FB
:1013000073078407BA0720F0621B730B840BBA0BB8
:10131000EE1F88F7E095089504D06894B111B5C028
:10132000089598D088F09F5790F0B92F9927B7511A
:10133000A0F0D1F0660F771F881F991F1AF0BA9599
:10134000C9F712C0B13081F09FD0B1E008959CC0C0
:10135000672F782F8827B85F39F0B93FCCF386958F
:1013600077956795B395D9F73EF4909580957095EC
:1013700061957F4F8F4F9F4F0895E89409C097FB69
:101380003EF490958095709561957F4F8F4F9F4F5C
:101390009923A9F0F92F96E9BB279395F6958795A0
:1013A00077956795B795F111F8CFFAF4BB0F11F463
:1013B00060FF1BC06F5F7F4F8F4F9F4F16C088230A
:1013C00011F096E911C0772321F09EE8872F762F40
:1013D00005C0662371F096E8862F70E060E02AF081
:1013E0009A95660F771F881FDAF7880F969587956D
:1013F00097F9089597F99F6780E870E060E0089595
:101400009FEF80EC089500240A941616170618061C
:101410000906089500240A941216130614060506F8
:101420000895092E0394000C11F4882352F0BB0F89
:1014300040F4BF2B11F460FF04C06F5F7F4F8F4FEC
:101440009F4F089557FD9058440F551F59F05F3F27
:1014500071F04795880F97FB991F61F09F3F79F0D6
:1014600087950895121613061406551FF2CF469558
:10147000F1DF08C0161617061806991FF1CF8695DA
:101480007105610508940895E894BB2766277727BE
:10149000CB0197F908950AD0C4CFB5DF28F0BADFA1
:1014A00018F0952309F0A6CFABCFEFCFCBDFA8F391
:1014B0009923D9F35523C9F3950F50E0551FAA2757
:1014C000EE27FF27BB2700240894679520F4E20F3E
:1014D000F31FB41F0A1E220F331F441FAA1F669555
:1014E000A9F7779530F4F30FB41F0A1E121E08F403
:1014F0006395330F441FAA1F221F769599F787958E
:1015000020F4B40F0A1E121E631F440FAA1F221FCD
:10151000331F8695A9F7862F712D602D11249F57B3
:1015200050408AF0E1F088234AF0EE0FFF1FBB1F06
:10153000661F771F881F91505040A9F79E3F5105A5
:1015400070F058CFA2CF5F3FECF3983EDCF3869566
:1015500077956795B795F795E7959F5FC1F7FE2B50
:10156000880F911D9695879597F908955527002422
:1015700080FF02C0060E571F660F771F61157105A9
:1015800021F096958795009799F7952F802D0895CE
:1015900097FB092E07260AD077FD04D049D006D044
:1015A00000201AF4709561957F4F0895F6F7909595
:1015B00081959F4F0895A1E21A2EAA1BBB1BFD0126
:1015C0000DC0AA1FBB1FEE1FFF1FA217B307E40722
:1015D000F50720F0A21BB30BE40BF50B661F771F7A
:1015E000881F991F1A9469F760957095809590955A
:1015F0009B01AC01BD01CF01089597FB092E052683
:101600000ED057FD04D0D7DF0AD0001C38F4509517
:101610004095309521953F4F4F4F5F4F0895F6F716
:1016200090958095709561957F4F8F4F9F4F08954E
:10163000AA1BBB1B51E107C0AA1FBB1FA617B707F8
:1016400010F0A61BB70B881F991F5A95A9F7809514
:101650009095BC01CD010895EE0FFF1F0590F49108
:10166000E02D099410E0C4EFD0E003C0FE01F6DFE6
:101670002296C63FD107D1F7F894FFCF00000000B3
:10168000AB059508920571056E065D06FFFFFFFF2D
:10169000FFFFFFFFFFFFFFFFFFFFFFFFFFFFFFFF5A
:1016A000FFFFFFFFFFFFFFFFFFFFFFFFFFFFFFFF4A
:1016B000FFFFFFFFFFFFFFFFFFFFFFFFFFFFFFFF3A
:1016C000FFFFFFFFFFFFFFFFFFFFFFFFFFFFFFFF2A
:00000001FF
